:020000040040BA
:1000000000764120C1334000A5334000A9334000B1
:10001000BD334000A7334000A5334000000000007E
:10002000000000000000000000000000511C400023
:10003000A533400000000000F11C4000551D4000A9
:10004000A5334000A5334000810C4000A53340009B
:10005000A5334000A53340009D124000A533400069
:10006000A533400000000000A5334000A533400048
:10007000290E4000A5334000A5334000A5334000C1
:10008000A5334000A5334000A5334000A533400010
:10009000A5334000A5334000A53340005D0B400070
:1000A000A5334000A53340006D0B4000A533400050
:1000B000A5334000A5334000A5334000D10C4000DB
:1000C000A5334000A533400025054000F91040004D
:1000D000A533400009114000A5334000291240001B
:1000E000A5334000A5334000A5334000A5334000B0
:1000F000A5334000A5334000A53340007D0B4000F0
:10010000A5334000A53340008D0B4000A5334000CF
:10011000A5334000000000000000000000000000C7
:10012000A5334000A5334000A5024000A5334000A0
:10013000E10C4000A5334000A5334000A53340004A
:10014000A5334000A5334000A5334000A53340004F
:10015000A5334000A5334000A5334000A53340003F
:10016000A5334000A533400010B5054C237833B9C2
:10017000044B13B10448AFF300800123237010BD7A
:10018000E00940200000000048B3400008B5034BE0
:100190001BB103490348AFF3008008BD0000000015
:1001A000E409402048B3400008B530B9084611467C
:1001B00000F028F840EAE07008BD4FF0FF30FBE7A0
:1001C00008B5431E022B06D80846114600F028F851
:1001D00040EAE07008BD4FF0FF30FBE738B5044659
:1001E000064D2B680021986804F09AFA2B680021CC
:1001F000586804F095FA024B1C6038BD2C00402072
:10020000FC09402008B50346044A106820B18AB2B0
:10021000194601F017F908BD0020FCE7FC09402051
:1002200008B50346044A106820B18AB2194601F0A5
:1002300005F908BD0020FCE7FC09402030B400238C
:10024000154901EB8312D26D0133182BF9D100222D
:10025000114D1146114805EB8213D9665967C3F851
:100260008010C3F8841050F832409C6700EBC20441
:100270006468DC670132182AEDD1094B4FF08062C7
:10028000C3F88420BFF34F8FBFF36F8FC3F884216F
:100290005A60002030BC70470080074004AA40002C
:1002A00000E100E008B51A4B01221A60194B986969
:1002B00010F0010F1ED11346D9B220FA03F212F04A
:1002C000010F03D10133182BF6D112E05BB2002BE2
:1002D0000FDB03EB4300104A02EB800089010F4A59
:1002E000525812F0700F08D043689847084B00220C
:1002F0001A6008BD00210B46EBE712F0010FF5D0A4
:1003000003EB430C044B53F82C309847EEE700BF47
:10031000200B402000800740000A40205C800740FE
:1003200008B5837C03F00F03C27C02F007010129AA
:1003300008D0154A02EB83030422C3F86021C3F8F6
:10034000202208BD12F0400F0CD0C27C6FF3861241
:10035000C2740D4A02EB83020121C2F890110221FE
:10036000C2F86011C27C6FF3C302C274064A02EB8A
:1003700083031822C3F86021C3F82022034B9B6833
:10038000807C9847DDE700BF00800340240B4020BD
:100390000346807CFF280DD0DA7C12F0400F09D094
:1003A00010B5DA7C6FF38612DA74034A14699A681E
:1003B000A04710BD704700BF240B40202DE9F0413D
:1003C0000F4B1A6822F080021A601A6822F07F022E
:1003D0001A601A6842F080021A600A4D05F114048E
:1003E000DC354FF00308FF27002641462046FFF783
:1003F000CFFFA774E6741434AC42F6D1BDE8F081A7
:1004000000800340240B402038B5C37C13F0400F1C
:1004100037D090F812C00CF00F0C82684468A242EA
:1004200027D0A41AB4F5803F01D8250402E00025A6
:100430004FF4803403F09001802923D003F00703A8
:10044000022B22D045F0140503681A440CF1FF3347
:10045000DBB2244903F1310E01EB0E1ECEF804206D
:1004600001EB0311D1F81C2312F0100F11D0836897
:100470004360C37C03F09003902B1BD00021FFF757
:1004800087FF38BD45F00805DEE7038AA342DBD3CA
:10049000D8E745F02105134AC1F81853836823446F
:1004A0008360C4600CF1FF3C4FF0007303FA0CF35F
:1004B0009361E6E70B4B03EB8C030122C3F8602149
:1004C000D3F8302112F4803F02D00122C3F89021EA
:1004D0000122C3F8F0214FF4805303FA0CF3014AD0
:1004E0009361CEE700800340837CFF2B17D090F808
:1004F00013C01CF0400F12D010B503F00F0341B130
:1005000064330749012441F823401146FFF740FFB7
:1005100010BD58330249022441F82340F5E77047E3
:10052000008003402DE9F04F85B0AA4A5168136955
:100530000B40C3F309374FEA536957EA536302D0BC
:10054000A54B002486E0A34A53689BB2126913406E
:1005500013F0040F17D113F0020F1DD113F0700F19
:1005600021D113F0080F2AD113F0010FE8D0994BD5
:1005700001229A605A6170229A61974B5B68002150
:100580000420984705E0934B04229A60924B1B6825
:10059000984705B0BDE8F08F8E4B02229A608E4BD3
:1005A0001B689847F5E78B4B70229A605A610122CD
:1005B0009A61894B5B68002102209847E9E7854BE7
:1005C00008229A6070225A6101249C61FFF7F6FEAE
:1005D000814B5B68002120469847DAE705F00F055C
:1005E0000123AB403B422FD07A4B03EB850ADAF86C
:1005F0003031DBB2DAF8C021134025D013F0400FC0
:100600001BD198F827B01BF0400F5BD01BF0800F78
:100610005FD113F0200F40F0038113F0020F40F080
:1006200010810BF0070BBBF1010F0DD113F0040F7C
:100630000AD03046FFF774FE06E04023CAF82032A5
:1006400001213046FFF7A4FE631CDBB2092BA0D8C2
:1006500001343346019403F11406984693F826506A
:10066000FF2DF1D0002FB9D1B9F1000FECD0631EEE
:10067000DBB2052BE8D805F00F056B1E01229A406E
:1006800012EA090FE4D0DAB2524800EB0211D1F8B5
:100690001C1311F0010FDBD14FF0007101FA03F3CD
:1006A000436100EB0212D2F81C23120C06D0D8F8DA
:1006B0001C309B1AC8F81C30C8F818303046FFF7B9
:1006C000A3FEC5E713F0040FBED03046FFF728FEA7
:1006D000BAE713F0010F0BD10BF0070BBBF1010FC1
:1006E000B2D113F0040FAFD03046FFF719FEABE7DD
:1006F000B8F8240040F2FF33984248D0431E1BB2A2
:100700000BF007020292D8F81C10D8F8182091427A
:1007100064D31BF0100F3DD1D8F820200121CAF876
:1007200020120299012905D04FF4805101FA05F5F4
:1007300028494D61D8F81C10C8F818101340B8F8B3
:1007400024209BB29A421DD1019B03EB8303224DCF
:1007500005EB830393F827206FF3861283F8272095
:10076000EB6898F82600984700287FF46DAF019B4E
:1007700003EB830305EB830393F8272042F0400249
:1007800083F8272000213046FFF702FE5CE740F2A5
:10079000FF33B5E70021C8F82010019B03EB83036A
:1007A0000D4A02EB830393F8272061F3041283F8C8
:1007B00027200123CAF860310823CAF86031CAF83B
:1007C000F031029B012B3FF43FAF4FF48043CAF856
:1007D000203239E700800340240B4020531A9BB29B
:1007E000984228BF18468346D8F814300246194468
:1007F000464B03EBC53003F03DFEC8F820B0D8F8F7
:100800001C305B44C8F81C300123CAF86031029BDD
:10081000012B3FF419AF4FF48043CAF8203213E79D
:100820002023CAF86031019B03EB8303384A02EBB3
:10083000830393F827100422C9093046FFF754FEBA
:1008400002E7DAF83031C3F30A5211460292D8F8BF
:100850001830D8F81C000222CAF86021002946D0BE
:100860001B1A9BB299423FD9029301230393D8F8F4
:100870001430029A254901EBC531184403F0FAFD02
:10088000D8F81C30029A1344C8F81C30C8F820204D
:100890004FF48043CAF82032B8F82430029A9342C9
:1008A00028D9019B03EB8303194A02EB830393F8D6
:1008B00027206FF3041283F827200223CAF820327E
:1008C0000BF0070BBBF1010F05D04FF4805303FA77
:1008D00005F5104B5D61D8F81C30C8F818300021C0
:1008E0003046FFF755FDAFE600230393BFE7002333
:1008F0000393D1E7D8F81C20D8F818309A42DCD2FC
:10090000039B002B3FF4A0AED7E700BF000010A070
:10091000240B4020008003400020704710B50C4697
:1009200001600846FFF7F8FF0C4BC4F8E4300023E1
:1009300063606362A362AC2222604FF48072226023
:100940004FF40022226000EB4000054A02EB8000D9
:1009500042686260034A2262184610BD0041535546
:10096000C4AA400051000300036850221A60704777
:100970000368D961704703689869C0B2704703681B
:100980005869C0F34000704703685869C0F34020BD
:1009900070470368586900F00100704700207047F5
:1009A0000161094A094B914218BF00235A680A6045
:1009B0000269996891630269D968516402691B6987
:1009C00013610020704700BF00800140D0AA4000A2
:1009D000438813F4807F40F0AC8010B586464B8886
:1009E00013F0010F55D04B889BB243F480734B80BA
:1009F0000B8813F4806F25D002691B0A43F078033B
:100A00001B0403F4FE0343F48853536003690A781C
:100A1000DA60DEF810304A68012A0CBF0322012296
:100A20001A604B680BB300200224DEF810301A6AFB
:100A300012F0020F0ED11A6A12F4807FF7D06FF015
:100A400001006AE002691B0403F4FE0343F48053CF
:100A50005360DEE71A6B8B681A544B68023B98426E
:100A600013D001304B689842DFD3DEF81020136AB0
:100A700013F0010FFBD0BEF8023023F480731B0487
:100A80001B0CAEF80230002047E0DEF810301C608E
:100A9000E7E74B889BB243F480734B800B8813F4D9
:100AA000806F11D002691B0A43F078031B0403F422
:100AB000FE0343F48073536003690A78DA60486880
:100AC000F8B14FF0000C0EE002691B0403F4FE03C2
:100AD0005360F4E78B6813F80C3053630CF1010C8E
:100AE0004B689C4509D2DEF81020136A13F4807F0E
:100AF00005D113F0040FF8D0ECE7002001E06FF00F
:100B000001004B8813F4004F08D1BEF8023023F4E3
:100B100080731B041B0CAEF8023010BDDEF81030E1
:100B200002221A60DEF81020136A13F0010FFBD0C6
:100B3000EBE76FF00500704708B5074B01221A601C
:100B400003691B6A13F0100F01D003689847024B2A
:100B500000221A6008BD00BF100C402008B5024BEF
:100B60001868FFF7E9FF08BD000C402008B5024BEC
:100B70001868FFF7E1FF08BD040C402008B5024BE0
:100B80001868FFF7D9FF08BD080C402008B5024BD4
:100B90001868FFF7D1FF08BD0C0C402002460F4B30
:100BA0000B44C3F30743052B02D16FF00C007047D1
:100BB0000B6913F4803F0DD180230B6001604FF06F
:100BC00000430B60064B4B60064B0B630020D0804C
:100BD000107170476FF01000704700BF0080FFBFBA
:100BE00011000E0002960F00F0B58E4603680E68E5
:100BF000496804791A6912F4803F29D005464FF0FC
:100C0000000C60460CE001310CF1010C1A6912F085
:100C1000080F16D1DEF80820824201D8624512D9A9
:100C20001A6912F0010F16D09A680029ECD092B21E
:100C30000A70012CE7D9120A4A700231E4E7013642
:100C400018E06FF012001A6912F4007FFBD0F0BDBB
:100C50006FF01300FBE78445D8D31A6912F0020F36
:100C6000D4D0EA8836B13278012CE8D9777842EAD4
:100C7000072202360130DA60C8E700207047000022
:100C800008B50D4B01221A600C4B1868036802224C
:100C90005A6203689A6912F0020F03D00222DA61E5
:100CA00043689847054B1B681B6802221A62024B77
:100CB00000221A6008BD00BF180C4020140C402010
:100CC00008B50369DB6913B1036803B1984708BD30
:100CD00008B5024B1868FFF7F3FF08BD1C0C402055
:100CE00008B5024B1868FFF7EBFF08BD200C402049
:100CF00037490A6A22F00202364B13430B620A4656
:100D0000936E13F0010FFBD0314B196A324A0A433C
:100D10001A62996A314A0A409A62314A9A621A46BC
:100D2000936E13F0020FFBD0294B4FF47102DA617E
:100D30001A46936E13F0400FFBD0254A136B43F411
:100D400000531363936E13F0080FFBD0204A136B0C
:100D500023F070031363936E13F0080FFBD01C4A4B
:100D6000136B23F4407343F480731363936E13F097
:100D7000080FFBD0164A136B23F0030343F0020362
:100D80001363936E13F0080FFBD0114B01221A640A
:100D90001A46936E13F4807FFBD00D4B4FF4807294
:100DA0001A6001229A641A46936E13F4806FFBD086
:100DB000074B4FF480621A6023225A651A46936EDD
:100DC00013F4005FFBD0024B4FF400521A607047DF
:100DD00000060E40013E370000003701FFFF00F81B
:100DE000013F1820E9B100B58E46011F4FF0000CFD
:100DF00051F8042F12F0010F0ED1012002231342EB
:100E00000BD15B0001302028F9D10CF1010CF44525
:100E1000EED14FF0FF3002E0002000EB4C105DF807
:100E200004FB4FF0FF307047F0B587B0002301930B
:100E30000293039304930593184AD36C926C134066
:100E400003934BB3164D154E052101A8FFF7CAFFBA
:100E50000446B0F1FF3F19D001272B682046984780
:100E6000631106AA02EB830304F01F0407FA04F4DB
:100E700053F8142C22EA040443F8144C052101A869
:100E8000FFF7B0FF0446B0F1FF3FE6D1F36CB26C60
:100E900013400393002BD7D107B0F0BD00120E40D2
:100EA000240C402038B504461B4B01221A6003680D
:100EB0001D6D15F0010F01D08368984715F4007F70
:100EC00002D063682046984715F0007F03D0E3689E
:100ED00003212046984715F0807F03D0E368002166
:100EE0002046984715F4000F09D0E3682268526C39
:100EF00012F0200F14BF022101212046984715F05F
:100F0000080F03D0E36804212046984723681D6535
:100F1000014B00221A6038BD3022402001608B69ED
:100F200043F001038B610268936913F0010FFBD05A
:100F3000936943F0020393615C4B994213D05C4B7D
:100F4000994261D00268936923F0020393610268B9
:100F5000936923F0010393610268936913F0010F11
:100F6000FBD100207047534B836103689A699A61F3
:100F70000368514ADA610368504ADA60036840F650
:100F80000B329A6402684E4B9BB243F48003C2F862
:100F9000A03003680022C3F8BC200368C3F8C8204F
:100FA0000168484B9BB243F00053C1F8C030016860
:100FB000454B9BB243F40013C1F8F030036828217D
:100FC000C3F880100168414B9BB243F40003C1F8A1
:100FD000843001683E4B9BB243F48003C1F88830F3
:100FE0000368C3F890203B4B18603B4B0822C3F8C2
:100FF0008420BFF34F8FBFF36F8FC3F884215A60F3
:1010000003680122DA659DE7344B836103689A69BE
:101010009A610368284ADA61036841F69342DA600C
:10102000036840F60B329A6402682D4B9BB243F47E
:101030008003C2F8A03003680022C3F8BC20036814
:10104000C3F8C8200168274B9BB243F00053C1F896
:10105000C0300168244B9BB243F40013C1F8F03058
:1010600003682821C3F880100168204B9BB243F429
:101070000003C1F8843001681D4B9BB243F4800328
:10108000C1F888300368C3F890201A4B1860124BDF
:101090002022C3F88420BFF34F8FBFF36F8FC3F8B4
:1010A00084215A6003680122DA654BE7000003409F
:1010B0000040034000004020091C0706931C070065
:1010C000300E402030154020301440203012402097
:1010D000300C4020280C402000E100E014004020AB
:1010E0003019402030204020301F4020301D40204B
:1010F000301740202C0C402008B5024B1868FFF731
:10110000D1FE08BD280C402008B5024B1868FFF737
:10111000C9FE08BD2C0C402030B4016010230B60C8
:101120000368334A5A6003680022DA600368314971
:1011300019610368C3F8B820036840F20111C3F8CD
:10114000BC102D4B2D4919605A608024DC7101F2CE
:10115000DC519960DA60C021D973294B1A60294AA1
:10116000294C04F1800C234600211A60596002F5D5
:10117000007208339C45F8D1234A92F8783043F046
:10118000020382F878300023204A136002681A496B
:10119000D161026894611E4A1E4911605360C021EA
:1011A000D1711D491D4A0A604B6042F002020A706B
:1011B000174D0C46026803F5887142F82150026809
:1011C00003F5907142F821400133052BF2D1144B05
:1011D0001860144B8022C3F88420BFF34F8FBFF3F5
:1011E0006F8FC3F884215A60002030BC704700BF65
:1011F0000301100004070800D84E4020204340207F
:10120000E84E402080224020804240200043402081
:10121000F04E4020602240200843402040224020E1
:101220006422402000E100E000B583B0174B0122AA
:101230001A60174B186803685A6901921A6A00927B
:101240005A6A019A12F0200F0CD0019A5A61114B80
:101250001A68114B03EBC203DB79DB0902D0436848
:1012600003B19847009B13F0020F04D0084B186895
:10127000836803B19847064B1B681B68009A1A6283
:10128000024B00221A6003B05DF804FBF84E4020C8
:1012900064224020E84E4020D84E402008B5054B3F
:1012A000186803699B6813F0010F02D0036803B14B
:1012B000984708BDFC4E402000B583B001A800F05F
:1012C00057F8134AD2F8883043F47003C2F88830D4
:1012D000BFF34F8FBFF36F8F01A800F050F80D4A96
:1012E000136823F4706343F4A06313600A4BD3F8CC
:1012F000083113F0806F04D1074B4FF08062C3F8C0
:101300000021FEF79BFFFFF7F3FC03B05DF804FB41
:1013100000ED00E0000C0E4000060E400346064AB9
:10132000126822B1044A1068034413607047024AED
:1013300002491160F6E700BF004F402000764120CF
:101340004FF0FF3070474FF400534B600020704760
:10135000012070470020704708B50146014803F09E
:1013600075F9FEE7E8AA400070474FF0FF3070477C
:10137000EFF31083036072B6BFF35F8F7047BFF364
:101380005F8F036883F31088704708B5C36903B1A2
:10139000984708BD08B5036A03B1984708BD08B56A
:1013A000436A03B1984708BD10B50446FFF7B6FD80
:1013B00028B9034B6360034BA360034BE36010BD8C
:1013C0008B134000951340009F13400010B584B06C
:1013D00014460389ADF8043002924FF40043ADF88F
:1013E0000630039101A91438FFF7F2FA002808BF6C
:1013F000204604B010BD10B584B014460389ADF882
:101400000430029248F20103ADF80630039101A9BD
:101410001438FFF7DDFA002808BF204604B010BDDD
:1014200010B50446FFF7BCFA18B9024BA361024B92
:10143000636110BDF7134000CD13400008B5036889
:10144000984708BD08B54368984708BD08B5FFF739
:1014500063FE08BD0160704710B5044640F8041FE4
:10146000FFF79CFB002807DB4FF40043A382034BEC
:101470002361034BE360002010BD00BFBD1440009A
:10148000A314400000B585B00B6801934B6802932C
:101490008B68039301A90430FFF7A6FB05B05DF844
:1014A00004FB00B585B0002302930191039201A9CA
:1014B0000C38FFF7E7FF05B05DF804FB00B585B019
:1014C000029100230193039201A90C38FFF7DAFF80
:1014D00005B05DF804FBF8B50F46164600F10804A8
:1014E0002046FFF74CFA0028FAD07D1EC7F101070D
:1014F00015F8011F2046FFF73BFA2046FFF73FFA99
:101500000028FAD07B199E42F2D8002E08BF01268F
:101510002046FFF739FA0028FAD03046F8BDF8B572
:1015200017464D1E00F10804C1F101062046FFF7E1
:1015300030FA0028FAD02046FFF71DFA05F8010F0F
:1015400073199F42F2D8002F14BF38460120F8BD0E
:1015500010B504460830FFF7E1F918B9024B636093
:10156000024B236010BD00BF1F154000D714400080
:1015700008B50830FFF7F8F9002008BD08B500F0FD
:10158000B1F900F0E3F908BD114B1A6F42F4801273
:101590001A675A6F22F480125A674FF480125A6009
:1015A0001A6F42F400121A675A6F22F400125A6737
:1015B0004FF400125A601A6F42F480021A675A6F91
:1015C00022F480025A674FF480025A60704700BFCD
:1015D00000140E40044B9B6913F4001F03D1024B0F
:1015E0004FF400121A61704700060E4010B5FFF765
:1015F000F1FFFFF742FB0146054C2046FFF72AFFAB
:1016000004492046FFF728FFFFF7BEFF10BD00BFCB
:10161000904F4020008000400A4B1A6F22F01002C9
:101620001A675A6F22F010025A6710225A601A6F16
:1016300022F008021A675A6F22F008025A6708223D
:101640005A607047000E0E40044B9B6913F4002F44
:1016500003D1024B4FF400221A61704700060E407E
:1016600008B5FFF7F1FF03490348FFF7D9FEFFF77D
:10167000D3FF08BD00800140544F40200F4B1A6F2C
:1016800022F400121A675A6F22F400125A674FF4BC
:1016900000125A600A4AD2F8143143F01003C2F81B
:1016A0001431084B1A6F42F010021A675A6F42F059
:1016B00010025A6710225A60704700BF000E0E4099
:1016C0000080084000100E40044B9B6913F4804FCB
:1016D00003D1024B4FF480421A61704700060E405E
:1016E00008B5FFF7F1FFFFF7C9FFFFF757F902460B
:1016F00002490348FFF72CFF08BD00BF00800240ED
:10170000A84F4020334B1A6F22F480721A675A6F29
:1017100022F480725A674FF480725A601A6F22F472
:1017200000721A675A6F22F400725A674FF40072FF
:101730005A601A6F22F020021A675A6F22F02002B4
:101740005A6720225A601A6F22F040021A675A6FB5
:1017500022F040025A6740225A601A6F22F01002AB
:101760001A675A6F22F010025A6710225A601A6FD5
:1017700022F080021A675A6F22F080025A67802294
:101780005A601A6F22F004021A675A6F22F004029C
:101790005A6704225A601A6F22F008021A675A6FB9
:1017A00022F008025A6708225A601A6F22F00102DA
:1017B0001A675A6F22F001025A6701225A601A6FA3
:1017C00022F002021A675A6F22F002025A670222BE
:1017D0005A60704700140E40054BD3F8083113F0DF
:1017E000800F03D1024B8022C3F80021704700BF55
:1017F00000060E4008B5FFF7EFFF03490348FFF767
:1018000025FEFFF77FFF08BD00000540744F402014
:10181000054BD3F8083113F0080F03D1024B08220F
:10182000C3F80021704700BF00060E400A4B1A6F34
:1018300022F008021A675A6F22F008025A6708223B
:101840005A601A6F22F004021A675A6F22F00402DB
:101850005A6704225A60704700100E4008B5FFF71F
:10186000D7FFFFF7E3FF02490248FFF79DFD08BDE0
:1018700000000340044F4020054BD3F8083113F01B
:10188000200F03D1024B2022C3F80021704700BF74
:1018900000060E400B4B1A6F22F480521A675A6FE3
:1018A00042F480525A674FF480525A601A6F22F401
:1018B00080421A675A6F42F480425A674FF480425E
:1018C0005A60704700120E4008B5FFF7D5FFFFF7CA
:1018D000E1FF02490248FFF767FD08BD00400340F1
:1018E0002C4F402008B5FFF7E7FC154B9B6913F41C
:1018F000805F03D1124B4FF480521A61114A536D2D
:1019000043F400435365104B4FF480225A61C3F8EF
:1019100090205A661A6003F500734FF000721A6344
:101920001A611A60FFF762FEFFF79AFEFFF7D8FE12
:10193000FFF760FFFFF792FFFFF7C6FF08BD00BF8C
:1019400000060E4000180E4000120E4010B5044C68
:101950002046FFF70DFE2046FEF740FC10BD00BFFD
:10196000A84F4020154B1A461B688342FBD3516891
:1019700002EB010C604509D0416800EB010C6345A6
:1019800009D00360904218BF10607047406801445E
:1019900051601046F0E710B4094C2468A3420BD004
:1019A0005B681944416013681B680360904218BF6C
:1019B00010605DF8044B70470460F7E7C44F4120A6
:1019C000B44F4020F8B5044601F010F84A4B1B68AC
:1019D000B3B14A4B1D68254238D1002C3DD004F1EB
:1019E000080214F0070F02D022F007020832002A82
:1019F00033D0434B1E68964232D342490C6834E0E0
:101A0000414A12F0070F07D0D11D21F0070102F55E
:101A100080335B1A0A4601E04FF480333948026094
:101A2000002141601344083B23F007033248036060
:101A300059601960991A51601360344B1960304B2A
:101A400019602E4B4FF000421A60C2E701F07EF899
:101A500001F072FD00273846F8BD01F077F8F7E78E
:101A600001F074F8F4E721461C466368934202D201
:101A70002368002BF7D1204B1B68A34216D00F68B8
:101A8000083723680B6063689B1A102B15D9A018C0
:101A900010F0070F0DD04FF0800372B683F311885A
:101AA000BFF36F8FBFF34F8F62B6FEE701F04EF8C2
:101AB000CEE743606260FFF755FF6368F61A104A8D
:101AC0001660124A1268964201D2104A16601D43EF
:101AD00065600023236001F039F817F0070FBAD0D2
:101AE0004FF0800372B683F31188BFF36F8FBFF39B
:101AF0004F8F62B6FEE700BFB44F4020B84F412081
:101B0000BC4F4120C44F4120B84F4020C04F41201E
:101B1000002833D010B5044650F8043C184A126827
:101B200013420AD14FF0800372B683F31188BFF3DA
:101B30006F8FBFF34F8F62B6FEE750F8081C51B1AC
:101B40004FF0800372B683F31188BFF36F8FBFF33A
:101B50004F8F62B6FEE723EA020340F8043C00F030
:101B600045FF084A54F8043C11680B441360A4F183
:101B70000800FFF7F7FE00F0E9FF10BD704700BF57
:101B8000B84F4120BC4F4120014B1868704700BF3F
:101B9000BC4F412082B0002301930F4B1B68B3F16F
:101BA000FF3F0AD04FF0800372B683F31188BFF372
:101BB0006F8FBFF34F8F62B6FEE74FF0800372B6B0
:101BC00083F31188BFF36F8FBFF34F8F62B6019B12
:101BD000002BFCD002B07047280040200848006865
:101BE000006880F308884FF0000080F3148862B624
:101BF00061B6BFF34F8FBFF36F8F00DF00BF0000F0
:101C000008ED00E0DFF80C00016841F470010160AC
:101C10007047000088ED00E04FF0807340F8043C0E
:101C200021F0010140F8081C054B40F80C3C40F83D
:101C3000202C6FF0020340F8243C4438704700BF6A
:101C4000951B4000000000000000000000000000A4
:101C5000074B19680868B0E8F04F80F30988BFF3B4
:101C60006F8F4FF0000080F311887047AFF3008052
:101C7000D44F41204FF0800372B683F31188BFF335
:101C80006F8FBFF34F8F62B60C4A13680133136036
:101C9000012B00D070474FF0E023D3F8043D13F040
:101CA000FF0FF7D04FF0800372B683F31188BFF3B4
:101CB0006F8FBFF34F8F62B6FEE700BF2800402052
:101CC0000A4B1B6853B94FF0800372B683F3118837
:101CD000BFF36F8FBFF34F8F62B6FEE7013B034A3E
:101CE00013600BB983F31188704700BF28004020B0
:101CF000EFF30980BFF36F8F154B1A681EF0100FBA
:101D000008BF20ED108A20E9F04F10602DE909008E
:101D10004FF0800072B680F31188BFF34F8FBFF38E
:101D20006F8F62B600F0BEFF4FF0000080F31188A5
:101D300009BC19680868B0E8F04F1EF0100F08BF22
:101D4000B0EC108A80F30988BFF36F8F704700BF33
:101D5000D44F412008B54FF0800372B683F3118849
:101D6000BFF36F8FBFF34F8F62B600F04DFE28B107
:101D70004FF0E0234FF08052C3F8042D002383F38B
:101D8000118808BD4FF0E02300221A619A61024ACF
:101D90005A6107221A617047DF93040030B583B09F
:101DA000304B1A78D2B20192FF221A701B78DBB244
:101DB0008DF803309DF8033003F080032A4A137036
:101DC0002A4B07221A609DF8033013F0800F11D0C0
:101DD00006229DF803305B00DBB28DF803309DF8DE
:101DE00003301146013A13F0800FF2D11F4B1960F6
:101DF00004290AD04FF0800372B683F31188BFF331
:101E00006F8FBFF34F8F62B6FEE7184B4FF48062BF
:101E10001A60019BDBB202F1E02213704FF0E02464
:101E2000D4F8203D43F46003C4F8203DD4F8203DAD
:101E300043F06043C4F8203DFFF7A4FF00250C4B9E
:101E40001D60FFF7DFFED4F8343F43F04043C4F891
:101E5000343FFFF7C3FE00F025FFFFF79BFE284647
:101E600003B030BD00E400E0CC4F4120D04F412012
:101E700028004020EFF305830F2B11D9134A9B5CF8
:101E8000DBB2134A12789A420AD94FF0800372B635
:101E900083F31188BFF36F8FBFF34F8F62B6FEE7F6
:101EA0004FF0E023D3F80C3D03F4E063094A1268D5
:101EB00093420AD94FF0800372B683F31188BFF3BF
:101EC0006F8FBFF34F8F62B6FEE77047F0E300E01D
:101ED000CC4F4120D04F412000F1080343604FF028
:101EE000FF328260C36003610023036070470023F8
:101EF0000361704743684B609A688A6051609960DB
:101F00000861036801330360704730B40D68B5F1B0
:101F1000FF3F11D000F108031C465B681A68AA4213
:101F2000FAD963684B6099608C60616008610368EE
:101F30000133036030BC70470469F2E7036941680C
:101F400082688A60416851605A68824206D00022E5
:101F500002611A68013A1A601868704782685A600C
:101F6000F5E710B50446FFF785FEA46BFFF7A8FE62
:101F7000B4FA84F0400910BD70B504461546866B6E
:101F8000026C5AB903681BB100200136A66370BD0C
:101F9000406800F0D1FF00236360F6E76DB9806808
:101FA00002F068FAA368226C1344A360626893424B
:101FB00019D32368A3602846E7E7C06802F05AFAFD
:101FC000226C5142E3689B1AE3602268934202D27A
:101FD00063680B44E3600EB1022D01D00020D4E70A
:101FE000013E0020D1E72846CFE770B582B00190CE
:101FF000846C74B1A26BE36B9A4215D34FF08003EB
:1020000072B683F31188BFF36F8FBFF34F8F62B641
:10201000FEE74FF0800372B683F31188BFF36F8F32
:10202000BFF34F8F62B6FEE7A26B934203D8002541
:10203000284602B070BD94F8456076B20A4601A900
:102040002046FFF799FF0546B6F1FF3F04D0731C09
:102050005BB284F84530EBE7636A002BE8D004F10B
:10206000240000F0B9FE002818BF0125E0E7034670
:10207000026C6AB110B50846D9681144D9605C6831
:10208000A14201D31968D960D96802F0F3F910BDF3
:102090007047F8B50546FFF7EDFD95F8454064B289
:1020A000002C1BDD05F12407002608E06B6AABB1AC
:1020B000384600F091FE70B9013C64B274B1AB6C6B
:1020C000002BF3D031462846FFF78FFF0028F3D0CE
:1020D00000F01CFFF0E700F019FFEDE7FF2385F8A3
:1020E0004530FFF7EDFDFFF7C5FD95F8444064B2BC
:1020F000002C0FDD05F1100602E0013C64B24CB18A
:102100002B693BB1304600F067FE0028F5D000F0A7
:10211000FDFEF2E7FF2385F84430FFF7D1FDF8BD5F
:1021200038B5E0B10D460446FFF7A4FD2268216CE6
:10213000E36B01FB03F3D01860600020A063A26092
:102140005B1A1344E360FF2384F8443084F845307D
:102150000DBB236973B9FFF7B3FD012038BD4FF004
:10216000800372B683F31188BFF36F8FBFF34F8F75
:1021700062B6FEE704F1100000F02EFE0028EAD05F
:102180004FF0E0234FF08052C3F8042DBFF34F8F80
:10219000BFF36F8FDFE704F11000FFF79DFE04F13E
:1021A0002400FFF799FED6E7F8B550B94FF0800349
:1021B00072B683F31188BFF36F8FBFF34F8F62B690
:1021C000FEE70C461546074601FB00F05430FFF7CA
:1021D000F9FB064668B174B100F154033360F7634C
:1021E000346401213046FFF79BFF86F850500023EE
:1021F000B3643046F8BD0346F0E72DE9F04385B0FF
:10220000019298B10E461D460446D1B1022D26D149
:10221000E36B012B23D04FF0800372B683F3118858
:10222000BFF36F8FBFF34F8F62B6FEE74FF08003AF
:1022300072B683F31188BFF36F8FBFF34F8F62B60F
:10224000FEE7036C002BE1D04FF0800372B683F3FE
:102250001188BFF36F8FBFF34F8F62B6FEE700F0B8
:102260005BFE60B9019B73B14FF0800372B683F3DC
:102270001188BFF36F8FBFF34F8F62B6FEE74FF049
:102280000008002753E04FF00008FAE72A463146DD
:102290002046FFF771FEA36CA3B129462046FFF745
:1022A000A4FE48B14FF0E0234FF08052C3F8042D54
:1022B000BFF34F8FBFF36F8FFFF702FD012005B013
:1022C000BDE8F083636A63B90028F5D04FF0E023DE
:1022D0004FF08052C3F8042DBFF34F8FBFF36F8FC1
:1022E000EAE704F1240000F077FD0028E4D04FF085
:1022F000E0234FF08052C3F8042DBFF34F8FBFF39C
:102300006F8FD9E7FFF7DCFC0020D8E702A800F0C8
:10231000ABFD1AE084F8447023E084F8457026E0B1
:102320002046FFF7B6FE00F011FC4FF00108FFF762
:10233000A1FCA26BE36B9A42A8D3022DA6D0019B0D
:10234000002BDFD0B8F1000FE0D0FFF7B9FC00F0B0
:102350004DFBFFF78FFC94F8442052B2B2F1FF3FDF
:10236000D8D094F8452052B2B2F1FF3FD5D0FFF754
:10237000A7FC01A902A800F083FD00BBFFF77AFCCF
:10238000D4F83890D4F83C80FFF79AFCC145C7D107
:10239000019904F1100000F0E5FC2046FFF779FEFA
:1023A00000F0D4FB0028C0D14FF0E0234FF0805262
:1023B000C3F8042DBFF34F8FBFF36F8FB5E72046EF
:1023C000FFF767FE00F0C2FB002078E72DE9F84335
:1023D000A0B10F4616461C460546D1B1022C26D1A7
:1023E000EB6B012B23D04FF0800372B683F311887F
:1023F000BFF36F8FBFF34F8F62B6FEE74FF08003DE
:1024000072B683F31188BFF36F8FBFF34F8F62B63D
:10241000FEE7036C002BE1D04FF0800372B683F32C
:102420001188BFF36F8FBFF34F8F62B6FEE7FFF7E0
:1024300021FDEFF311894FF0800372B683F3118809
:10244000BFF36F8FBFF34F8F62B6AA6BEB6B9A42ED
:1024500006D3022C04D0002089F31188BDE8F8834C
:1024600095F845804FFA88F8224639462846FFF706
:1024700083FDB8F1FF3F06D008F101035BB285F898
:1024800045300120E8E7AB6C43B121462846FFF711
:10249000ACFD86B178B101203060DDE76B6A0BB925
:1024A0000120D9E705F1240000F096FC2EB120B1FF
:1024B00001203060D0E70120CEE70120CCE72DE9F4
:1024C000F04184B0019290B10E460446D1B100F0C3
:1024D00023FD28BB019B3BB34FF0800372B683F30F
:1024E0001188BFF36F8FBFF34F8F62B6FEE74FF0D7
:1024F000800372B683F31188BFF36F8FBFF34F8FE2
:1025000062B6FEE7036C002BE1D04FF0800372B699
:1025100083F31188BFF36F8FBFF34F8F62B6FEE76F
:102520004FF00008002741E04FF00008FAE731467D
:102530002046FFF79CFD013DA56323692BB9FFF7FA
:10254000BFFB012004B0BDE8F08104F1100000F0F1
:1025500043FC0028F3D04FF0E0234FF08052C3F843
:10256000042DBFF34F8FBFF36F8FE8E7FFF7A8FB92
:102570000020E7E702A800F077FC22E084F844702E
:102580002BE084F845702EE02046FFF782FD00F036
:10259000DDFA09E02046FFF77CFD00F0D7FA20467F
:1025A000FFF7DFFC002842D14FF00108FFF762FB84
:1025B000A56B002DBBD1019B002BD7D0B8F1000F2C
:1025C000D8D0FFF77DFB00F011FAFFF753FB94F82A
:1025D00044305BB2B3F1FF3FD0D094F845305BB2EA
:1025E000B3F1FF3FCDD0FFF76BFB01A902A800F0CC
:1025F00047FC0028CED12046FFF7B3FC0028C3D00B
:10260000019904F1240000F0ADFB2046FFF741FDE5
:1026100000F09CFA0028C7D14FF0E0234FF0805221
:10262000C3F8042DBFF34F8FBFF36F8FBCE70020BB
:1026300088E770B504460D461646FFF71BFB94F875
:1026400044305BB2B3F1FF3F0DD094F845305BB23C
:10265000B3F1FF3F0BD0FFF733FBA36B5BB1204619
:10266000FFF717FD70BD002384F84430EDE7002329
:1026700084F84530EFE73246294604F1240000F0A3
:102680008BFBECE7084B1B681B6823B9074B4FF02B
:10269000FF321A607047044B1B68DB68DB685A68BE
:1026A000024B1A60704700BFD84F4120245541208B
:1026B00070B504460D46174B1E68174B186804305A
:1026C000FFF73CFCB4F1FF3F00D16DB93444124B2D
:1026D0001B685C60A6420ED9104B18680E4B196837
:1026E0000431FFF712FC70BD0B4B196804310C4824
:1026F000FFF700FCF7E70B4B1868074B196804312C
:10270000FFF703FC084B1B68A342ECD9064B1C6087
:10271000E9E700BF6C554120D44F4120DC4F4120F8
:1027200044554120D84F41202455412080B5174DB4
:10273000174F184E0BE04FF0E0234FF08052C3F8D4
:10274000042DBFF34F8FBFF36F8F00F00BFF2B688B
:10275000BBB1FFF78FFAFB68DC68201DFFF7EEFBCB
:102760003368013B33602B68013B2B60FFF7A8FA0D
:10277000206BFFF7CDF92046FFF7CAF92B68002B35
:10278000E7D1054B1B68012BD5D8DEE7E454412087
:1027900058554120E0544120E04F41202DE9F84FA9
:1027A00007460D46984696003046FFF70BF900287D
:1027B00000F0B48081465820FFF704F90446002851
:1027C00056D0C0F830903246A521484601F0ECFEC4
:1027D000D4F8309005F1FF3C04F1340305F1070E05
:1027E0001CF9015F03F8015B0DB1F445F8D14FF01E
:1027F000000B84F83BB00A9D3F2D28BF3F25E562C2
:102800006564C4F848B004F1040A5046FFF76FFB52
:1028100004F11800FFF76BFB2461C5F14005A561C9
:102820006462C4F84CB0C4F850B084F854B0043EAC
:102830004E444246394626F00700FFF7EDF9206086
:102840000B9B03B11C60FFF715FA384A136801337C
:102850001360374B1B688BB1364B1B689BB9344BED
:102860001B68DA6AE36A9A420DD8314B1C600AE0B1
:102870004846FFF74DF94FF0FF3051E02C4B1C60FC
:102880001368012B2BD02C4A136801331360E363C8
:10289000E06A2A4B1B68984201D9284B186000EB6C
:1028A00080005146264B03EB8000FFF723FBFFF728
:1028B00007FA204B1B68002B34D01D4B1B68DA6ACB
:1028C000E36A9A4230D24FF0E0234FF08052C3F8CF
:1028D000042DBFF34F8FBFF36F8F012020E0184D01
:1028E00005F5A0662846FFF7F7FA1435B542F9D189
:1028F000144E3046FFF7F0FA134D2846FFF7ECFA76
:102900001248FFF7E9FA1248FFF7E6FA1148FFF715
:10291000E3FA114B1E60114B1D60B4E74FF0FF301E
:10292000BDE8F88F0120FBE70120F9E7E0544120E2
:10293000D44F412040554120F0544120F4544120CF
:10294000E04F4120F85441200C5541202C554120A6
:102950005855412044554120D84F4120DC4F41205B
:1029600000B583B01B4B0193002300934FF48062AA
:1029700019491A48FFF712FF012805D0B0F1FF3FAF
:102980001DD003B05DF804FB00F06CFB0128F5D10D
:102990004FF0800372B683F31188BFF36F8FBFF3DC
:1029A0004F8F62B60E4B4FF0FF321A600D4B012273
:1029B0001A600D4B00221A60FFF7F0F9E1E74FF0C3
:1029C000800372B683F31188BFF36F8FBFF34F8F0D
:1029D00062B6FEE72055412004AB40002D274000A1
:1029E00024554120405541206C554120024A13682E
:1029F00001331360704700BFEC544120014B18684D
:102A0000704700BF6C5541202DE9F047444B1B68CF
:102A1000002B76D1434B1E6801361E60D6B9424B5F
:102A20001B681B6853B14FF0800372B683F31188A3
:102A3000BFF36F8FBFF34F8F62B6FEE73A4A11685C
:102A40003A4B186810601960394A136801331360F3
:102A5000FFF718FE374B1B68B34240D8324B1B6858
:102A60001B683BB10025DFF8C080DFF8DC90DFF8A1
:102A7000CCA01BE000252F4B4FF0FF321A602FE057
:102A80002C4A13602CE000EB800039460AEB8000F2
:102A9000FFF730FA284B1B68E26ADB6A9A4228BFCC
:102AA0000125D8F800301B68002BE4D0D8F800309E
:102AB000DB68DC6863689E42E2D3271D3846FFF777
:102AC0003DFAA36A1BB104F11800FFF737FAE06A78
:102AD000D9F800309842D6D9C9F80000D3E70025CC
:102AE000154B1B68DB6A03EB83039B00134AD35827
:102AF000022B28BF0125124B1B684BB900F03BFD90
:102B000006E00F4A13680133136000F034FD00251E
:102B10000C4B1B68002B0CBF28460120BDE8F0873A
:102B2000EC5441206C554120D84F4120DC4F4120CE
:102B30002855412024554120D44F4120E04F4120C9
:102B4000E854412070554120F4544120394B1B6812
:102B500053B94FF0800372B683F31188BFF36F8FC0
:102B6000BFF34F8F62B6FEE72DE9F041FFF782F821
:102B7000304B1A68013A1A601B68002B49D12E4B62
:102B80001B68002B4BD02D4B1B68002B4BD02B4EC2
:102B90002B4FDFF8BC8002E03368002B41D0F36894
:102BA000DC6804F11800FFF7C9F9251D2846FFF776
:102BB000C5F9E06A3B68984200D9386000EB8000B4
:102BC000294608EB8000FFF795F91E4B1B68E26A67
:102BD000DB6A9A42E0D31C4B01221A60DCE7013C1D
:102BE00005D0FFF711FF0028F9D03560F7E7174B44
:102BF00000221A60144B1C6864B14FF0E0234FF0C0
:102C00008052C3F8042DBFF34F8FBFF36F8F0124A1
:102C100000E00024FFF754F82046BDE8F0810024CE
:102C2000F8E7FFF72FFD094B1C68002CE2D0064E99
:102C30000125D6E7EC544120E05441202C55412099
:102C4000F4544120D44F412070554120E854412094
:102C5000E04F412010B5B8B10446114B1B6853B189
:102C60004FF0800372B683F31188BFF36F8FBFF309
:102C70004F8F62B6FEE7FFF7B9FE00212046FFF74F
:102C800017FDFFF763FF48B94FF0E0234FF0805284
:102C9000C3F8042DBFF34F8FBFF36F8F10BD00BF7C
:102CA000EC54412008B52A4B1B681BB1294B01226B
:102CB0001A6008BD274B00221A60274B1A681B6850
:102CC00012681B6B9A421BD9244B1B6803EB8302CF
:102CD000920023498A58D2B93BB1013B03EB8302EE
:102CE00051F822209AB9002BF7D14FF0800372B629
:102CF00083F31188BFF36F8FBFF34F8F62B6FEE788
:102D0000154B18681968343100F021FCDCE7144ACF
:102D100003EB830102EB810148684068486003EBE4
:102D2000830102EB8102083290420BD003EB830156
:102D30000B4A02EB81025268D168074A1160074AC8
:102D40001360B6E74068064A02EB81025060EDE787
:102D5000EC54412070554120D44F4120F45441207F
:102D6000E04F412058B110B50C460A4A116818319D
:102D7000FFF7CBF801212046FFF79AFC10BD4FF07A
:102D8000800372B683F31188BFF36F8FBFF34F8F49
:102D900062B6FEE7D44F412038B578B10D461446EF
:102DA0000C4A11681831FFF7A5F8002C21460CBF1A
:102DB00028464FF0FF30FFF77BFC38BD4FF0800313
:102DC00072B683F31188BFF36F8FBFF34F8F62B674
:102DD000FEE700BFD44F412038B5C368DC6824B398
:102DE00004F118052846FFF7A9F8194B1B683BBBEF
:102DF000251D2846FFF7A2F8E06A164B1B6898428B
:102E000001D9144B186000EB80002946124B03EBEC
:102E10008000FFF76FF8114B1B68E26ADB6A9A4289
:102E200013D901200E4B186038BD4FF0800372B6E5
:102E300083F31188BFF36F8FBFF34F8F62B6FEE746
:102E400029460848FFF756F8E5E70020ECE700BF01
:102E5000EC544120F4544120E04F4120D44F412014
:102E6000705541202C554120034B1B680360034BD8
:102E70001B684360704700BF285541206C554120B6
:102E8000D0B170B50C46054609B3FEF7F3FE1D4BF5
:102E90001A682368B3F1FF3F2CD069681A480068AC
:102EA0002E68864201D0914229D9501A834219D8FE
:102EB0000023236001241EE04FF0800372B683F3E9
:102EC0001188BFF36F8FBFF34F8F62B6FEE74FF0ED
:102ED000800372B683F31188BFF36F8FBFF34F8FF8
:102EE00062B6FEE79B1A0B4423602846FFF7BCFF3F
:102EF000002400E00024FEF7E3FE204670BD01241C
:102F0000F9E700BF6C55412028554120014B0122B3
:102F10001A60704770554120054B1B6833B1054B53
:102F20001B68002B0CBF0220002070470120704757
:102F300040554120EC54412000283FD038B504468C
:102F40001F4B1B6883420AD04FF0800372B683F395
:102F50001188BFF36F8FBFF34F8F62B6FEE7836CAC
:102F600053B94FF0800372B683F31188BFF36F8FAC
:102F7000BFF34F8F62B6FEE7013B8364C16A426CC8
:102F8000914200D00BB1002038BD051D2846FEF748
:102F9000D5FF606CE062C0F14003A361094B1B6880
:102FA000984201D9074B186000EB80002946064B78
:102FB00003EB8000FEF79EFF0120E5E7002070474D
:102FC000D44F4120F4544120E04F412008B54160E6
:102FD000006191420CD8D21A83699A4201D3012030
:102FE00008BD011D094B1868FEF78FFF0020F7E7A9
:102FF0009A4203D2994201D30120F1E7011D044B0B
:103000001868FEF782FF0020EAE700BF78554120EC
:103010007455412038B5FEF72DFE0D4B1B6813B1DA
:10302000FEF74EFE38BD0B4D2846FEF755FF0A4C05
:103030002046FEF751FF094B1D60094B1C60002222
:1030400010210220FFF7B0F8014B1860E8E700BF3D
:10305000A85541207C554120905541207455412070
:103060007855412000B583B0FFF7D4FF0D4B1B68A6
:1030700053B10D4B019302230093002340220B49CF
:103080000B48FFF78BFB50B94FF0800372B683F308
:103090001188BFF36F8FBFF34F8F62B6FEE703B0A7
:1030A0005DF804FBA8554120AC5541200CAB400015
:1030B000C9314000D8B19C4603461648006838B371
:1030C00000B585B000910192029305291ADCFFF743
:1030D00023FF02284FF000030CBF069A1A466946E8
:1030E0000C480068FFF789F805B05DF804FB4FF065
:1030F000800372B683F31188BFF36F8FBFF34F8FD6
:1031000062B6FEE7002362466946FFF75FF9EBE728
:1031100000207047A85541202DE9F04782B0824633
:10312000FFF76CFC0646254B1B68834208D800233A
:10313000CAF80030214B1E60304602B0BDE8F0876F
:103140001F4D4FF000082B681A686AB3DB681F68D0
:10315000DC6804F104094846FEF7F0FE636A204685
:103160009847E369012BEED1A3693B449F4206D205
:103170006360246149462868FEF7C7FEE3E7CDF89F
:10318000008043463A4641462046FFF793FF002819
:10319000D9D14FF0800372B683F31188BFF36F8FDC
:1031A000BFF34F8F62B6FEE7064A10680449086015
:1031B00013600123CAF80030BCE700BFA4554120CA
:1031C00074554120785541202DE9F04389B0724E65
:1031D000DFF8CC81714D33681F68002F00F0CE807E
:1031E000DB681F68FFF702FC04A8FFF795FF0446A1
:1031F000049B002B40F0CC80B84201D2002236E084
:10320000FFF7A4FC3368DB68D3F80C9009F10400E5
:10321000FEF794FED9F81C30012B04D0D9F82430E5
:1032200048469847B6E0D9F818103B46224639443C
:103230004846FFF7CBFE0028F0D0002100910B4656
:103240003A464846FFF736FF0028E7D14FF08003A3
:1032500072B683F31188BFF36F8FBFF34F8F62B6DF
:10326000FEE7D8F800301A68B2FA82F25209391B28
:103270002868FFF7DEF9FFF769FC002840F08A8034
:103280004FF0E0234FF08052C3F8042DBFF34F8F6F
:10329000BFF36F8F7EE007990698059B9847049BC4
:1032A000002B09DA224604A92868FFF708F900284C
:1032B00091D0049B002BEEDB069F7B6913B1381D78
:1032C000FEF73CFE03A8FFF727FF049B092BE9D874
:1032D00001A252F823F000BF013340000133400047
:1032E00001334000A53240004B33400075334000AD
:1032F0000133400001334000A53240004B33400011
:10330000059BB969024619443846FFF75FFE00285D
:10331000C8D07B6A38469847FB69012BC2D1BA698D
:103320000094234605990A4421463846FFF7C2FE19
:103330000028B7D14FF0800372B683F31188BFF332
:103340006F8FBFF34F8F62B6FEE70599B96131B158
:103350000346024601443846FFF738FEA2E74FF025
:10336000800372B683F31188BFF36F8FBFF34F8F63
:1033700062B6FEE73846FEF7CBFB93E7FFF736FB76
:1033800004A8FFF7C9FE0446049B002B3FF469AF75
:10339000FFF7DCFB002485E774554120A855412048
:1033A00078554120FEE7FEE71EF0040F0CBFEFF357
:1033B0000880EFF3098000F043B87047FEE7000093
:1033C00008B5174A174B9A4210D01A46164B9A4224
:1033D0000CD2581E801A20F003000430104B184401
:1033E00053F8041B42F8041B8342F9D10F4A104BD7
:1033F0009A420BD213460F4AD21A22F00302043229
:103400001A44002143F8041B9A42FBD10A4B23F0D3
:103410007F030A4A936001F009F800F057F8FEE7CD
:1034200048B3400000004020D8094020E009402077
:10343000FC554120FB5541200000400000ED00E01C
:103440002DE9F84FD0F800A0D0F80490D0F808800B
:10345000C768066945698469D0F81CB0124801F054
:1034600057F95146114801F0F1F84946104801F06A
:10347000EDF841460F4801F0E9F839460E4801F0F1
:10348000E5F831460D4801F0E1F829460C4801F015
:10349000DDF821460B4801F0D9F859460A4801F0F9
:1034A000D5F8BDE8F88F00BF14AB400040AB40003A
:1034B0004CAB400058AB400064AB400070AB4000E8
:1034C0007CAB4000ACAB4000CCAB400008B5FEF795
:1034D00055F80F4B4FF400425A65BFF34F8FBFF3BF
:1034E0006F8F0C4B0022C3F85022BFF34F8FBFF3F6
:1034F0006F8F5A6942F400325A61BFF34F8FBFF3A6
:103500006F8F054801F004F900F036F8FEE700BFC0
:1035100000180E4000ED00E0D8AB400008B5054DA6
:103520004FF4FA74284601F0F3F82046FFF792FBB7
:10353000F8E700BF0CAC40004FF0800372B683F395
:103540001188BFF36F8FBFF34F8F62B6FEE74FF066
:10355000800372B683F31188BFF36F8FBFF34F8F71
:1035600062B6FEE700B583B0FEF70EFB0190019B4B
:1035700003B05DF804FB704700B583B00B4B0193BB
:103580003223009300234FF4006209490948FFF7F2
:1035900005F9012804D1FFF7E3F903B05DF804FB56
:1035A00032220349044801F051F8F4E7B0554120B4
:1035B0001CAC40001D35400028AC400003685A0098
:1035C0004CBF43F0004323F000431844704700BF52
:1035D0002DE9F84329B34F1E044615463E464FF0E9
:1035E000000808EB060101EBD171491004EBC10999
:1035F0004846FFF7E3FF0346C80008308F422044E7
:1036000009D0AB4209D8FFF7D9FF0138A8420AD246
:1036100001F10108E5E7AB4205D9884501D04E1E0E
:10362000DFE74FF000094846BDE8F883012807D0DE
:10363000022807D0044B00280CBF18460020704712
:103640000248704702487047F13C4000F93C400096
:10365000013D400030B5234B83B004468D1E3BB383
:1036600001A92846AFF30080E8B101992A46FFF787
:10367000AFFF0146B8B1FFF7A1FF4B68A064012B73
:103680002CD0002B01F1040024DBFFF797FF00236F
:10369000C4E913030368002B11DBFFF78FFF2061E0
:1036A000002003B030BD00230920236103B030BDEA
:1036B0000D4B0E49C91AC91018460191D6E7C3F33C
:1036C0000360FFF7B3FF0028206114BF002009202A
:1036D00003B030BD0123C4E91303DBE700232361FA
:1036E0000520DEE70000000098B0400048B340002D
:1036F0000368DA0710B5044606D49B0700F14800BA
:1037000009D500F057FC2368590709D51A070ED5CB
:10371000DB0613D510BD00F045FC23685907F5D42E
:1037200004F1D00000F04EFC23681A07F0D404F531
:10373000A87000F04FFC2368DB06EBD404F5E870BA
:10374000BDE8104000F08ABC0346006800B1184490
:10375000704700BF704700BF70B504460E46316C1D
:103760002046FFF777FF054688B9326C626123690E
:1037700032462146012098470828F0D0072806D174
:103780002846316CFFF7E6FF301D00F0FFFB00F02C
:1037900045FE00BF2DE9F0470D1DD0F80C80D0F894
:1037A0001890074614460FCDADF5727D0DF10C0C47
:1037B000ACE80F000FCDACE80F000FCDACE80F0068
:1037C00095E80F0002AE4FF0000E8CE80F00C6F82F
:1037D00000E020E0336C7B614FF4F07231467AA850
:1037E00000F048FE3B697AAA394650469847889BC4
:1037F00073642146CDE9006905463B463A460120FF
:10380000C0470446E0B94FF4F0727AA9304600F0A0
:1038100031FE082D1AD1316C3846FFF71BFF0934F1
:103820005FFA84FA05460028D4D0B36B73643A4635
:10383000CDE900693B464AF010010120C04700B1C4
:10384000092528460DF5727DBDE8F087072DF7D1D3
:103850002046316CFFF77EFF03A800F097FB00BF06
:10386000F0B5CB6B0B6401F1040C0E460546BCE8C9
:103870000F00F9B001AC0FC4BCE80F000FC4BCE8E6
:103880000F000FC49CE80F004FF0FF3784E80F00D3
:10389000009706E02B696A4629469847082804469F
:1038A00008D110992846FFF7D5FE0028F2D009204C
:1038B00079B0F0BD6846FFF71BFF062CF7D1314603
:1038C0002846FFF749FF00BFC160D96B82611964C8
:1038D00000221946FFF75EBF70B5C66843690B64E6
:1038E000AEB903690A4604460D46014602209847D0
:1038F000072805D008280FD129462046FFF72CFFBE
:103900003046296CFFF726FF281D00F03FFB0122FF
:10391000FFF740FF00F082FD00F080FDC26822B199
:10392000CA6B0A640022FFF735BFFFF799BF00BFDB
:10393000012912D009D873B90F2A0CD800EB8202E2
:1039400018465368009A136070470339012994BFE1
:10395000012002207047022070470846704700BFD0
:1039600000B585B00A46002303A900911946FFF768
:10397000DFFF039805B05DF804FB00BF012912D0FA
:1039800009D873B90F2A0CD800EB8200009A12688C
:103990004260184670470339012994BF0120022074
:1039A0007047022070470846704700BF10B584B0CA
:1039B000002303AC039200940A461946FFF7DEFF8A
:1039C00004B010BD70B5D36B136402F1040C05464E
:1039D0000C46BCE80F00ADF50E7D0DF15C0EAEE8B7
:1039E0000F00BCE80F00AEE80F00BCE80F00AEE827
:1039F0000F009CE80F004FF0FF368EE80F00169680
:103A000010E0FFF7D3FF214616A8A847034616AAE1
:103A10006946082083B9049B9847052806460CD0C0
:103A2000092809D026996846FFF714FE03466A461E
:103A30000C2116A8002BE4D0092616A8FFF758FE83
:103A400030460DF50E7D70BD2DE9F04FCC6C89B080
:103A50001E4654F8043B06940D46174600F0030832
:103A6000002E79D01A0C1B0405938DF81D2002231B
:103A7000D2B204EB82048DF81C302B6DB8F1020F2A
:103A800008BFAC6B13F001030CD005A9384600F059
:103A90006FFB18B9082009B0BDE8F08F092009B004
:103AA000BDE8F08FD4F800A0BAF1000FEDD001937B
:103AB00000F008030293022E4AD0B4F800A0B4F834
:103AC00002900434AB6C29F0010B0F2138469B4463
:103AD000FFF746FF834539D82AF001039B4483450D
:103AE00094BF002001204FEA490303F002030AF0CB
:103AF000010A43EA0A03012B49D0022B32D0002BE2
:103B0000CCD1B8F1000F02D0002840F0CD800434B1
:103B1000D4F800A0BAF1000FCDD105A9384600F0C5
:103B200027FB0028BAD1019B002BB3D00F213846C8
:103B3000FFF716FF0E2102463846FFF737FF3846DB
:103B40006A4A0F21FFF732FF0720A8E70020CAE7E3
:103B5000D4F804900834B5E71B0205930323ADF8AD
:103B60001C308AE7236823F0004BB8F1000F45D1E1
:103B700028B1029A002A5CD0BBF1000F74D0002B50
:103B800000DA04340BF1010B04EB8B04C0E7B8F14D
:103B9000000F19D1B0B163682268991C4FEAD27244
:103BA0003FF47CAF05F158010133049100F090809F
:103BB000201DFFF7C9FD04AB01462846AFF3008086
:103BC00000285BD10834A3E70D213846D5F82090B2
:103BD000FFF7C6FE8145F5D1AB6A9C42F2D1204683
:103BE000FFF7ECFC0F2102463846FFF7DFFE3846B0
:103BF0002A460021FFF7DAFE072050E70D2138465C
:103C0000D5F82090FFF7ACFE814501D02368B6E7D8
:103C1000AB6A9C42FAD104230022C5E90B23E318C6
:103C2000C5F828B06B632368002B59DB012301938F
:103C3000A8E705F15803CDF80C8004F1040AB0465A
:103C400091461E460EE050460496FFF77DFD002289
:103C5000014604AB284609F101090AF1040AAFF351
:103C60000080E0B9D945EED10D213846FFF778FE46
:103C7000049BAC62C5E90803062010E781460D21CC
:103C80003846FFF76DFEB9F1020F286225D12B46A9
:103C9000049A43F82C2F6B62AC620620FFE646467E
:103CA0002368DDF80C806AE72046FFF787FC0434C0
:103CB0000246AC6328461446AFF3008000283FF468
:103CC000EDAE384622460F21FFF770FE0720E6E6EC
:103CD0000D213846FFF744FE2862049B6B62DBE748
:103CE0000BF1010004EB80007AE700BF0000000048
:103CF0000023FFF7A9BE00BF0123FFF7A5BE00BF49
:103D00000223FFF7A1BE00BF2DE9F0430646C3B072
:103D100015461C46042900F2BF80DFE801F09E57DB
:103D2000BD2D0300002C40F0B780102A00F2B480B3
:103D30000368D80600F1F98020AF384600F098F902
:103D4000B46B394600234FF0010C0CFA03F22A42FF
:103D5000204603F1010303D050F8042B0A60044607
:103D6000042B01F10401F0D13846B46300F076F978
:103D7000002043B0BDE8F083032C40F08D8094B266
:103D800004EB1243102B4FEA124500F285800368C2
:103D90001F0700F1D28020AF384600F03DF9B26B2A
:103DA00007EBC50154B10B46D01A01EBC401E40086
:103DB0001D5843F8045B8B42FAD122443846B26363
:103DC00000F008F9002043B0BDE8F083012C4FEA71
:103DD000124895B25CD0052C5ED108EB0509B9F10B
:103DE000200F59D8B8F10F0F79D9A946002D40F00E
:103DF0008A80B36B6DB320AF4FF0000907EBC807A3
:103E0000043F03EBC50553F8041B47F8041FAB42FE
:103E1000F9D1B9F1000F0FD06F464146102938BFD4
:103E2000102107EBC101843903EBC90553F8040BDA
:103E300041F8040FAB42F9D1012C00F08680B8F1B3
:103E40000F0FB56347D9B9F1000F02D0684600F0F3
:103E5000B9F8002043B0BDE8F083ECB9806B23468D
:103E60001FFA82FC0124371D04FA03F212EA0C0F38
:103E7000014604D051F8042B47F8232008460133AB
:103E8000102BF1D115F40055E3D1B063284604E0BE
:103E900008EB0503102B03D9022043B0BDE8F083E3
:103EA000B8F10F0FF8D83368DA0706D5304623F09B
:103EB000030340F8483B00F079F820AF384600F0A3
:103EC00075F8B36B002D97D11D460435B5633846A0
:103ED00000F068F8BDE720A800F06CF8B3E7B9F18E
:103EE000100F40D9A9F110093368D90708D523F07C
:103EF0000103304643F0020340F8483B00F05EF80F
:103F0000B9F1000F32D033685A0720D4B8F10F0F3F
:103F100025D96F463846C8F1100500F057F8002D36
:103F2000B36B7FF77AAF20AF68E723F010033360FD
:103F300006F5E87000F09CF8FEE623F00803036045
:103F400000F5A87000F068F825E720AFBDE730461F
:103F500023F0040340F8D03B00F038F8D6E720A85F
:103F600000F02CF8D5E74FF00009BDE7B8F10F0FCE
:103F70003FF63FAF20AF384600F020F8B36B002D7E
:103F80007FF43AAF384600F015F862E700F13401EB
:103F900091E838009C46A6464CF8045D90E8FF0F77
:103FA000E54600BD90EC210B704700BF80EC210B73
:103FB000704700BF90EC200B704700BF80EC200BD7
:103FC000704700BFD0EC200B704700BFC0EC200B47
:103FD000704700BFF0EC0201F0EC0211F0EC02219E
:103FE000F0EC0231F0EC0241F0EC0251F0EC026135
:103FF000F0EC0271F0EC0281F0EC0291F0EC02A125
:10400000F0EC02B1F0EC02C1F0EC02D1F0EC02E114
:10401000F0EC02F1704700BFE0EC0201E0EC0211AD
:10402000E0EC0221E0EC0231E0EC0241E0EC025174
:10403000E0EC0261E0EC0271E0EC0281E0EC029164
:10404000E0EC02A1E0EC02B1E0EC02C1E0EC02D154
:10405000E0EC02E1E0EC02F1704700BFB0FC01814E
:10406000B0FC0191B0FC01A1B0FC01B1704700BFF0
:10407000A0FC0181A0FC0191A0FC01A1A0FC01B168
:10408000704700BFEC4600B52DE900502DE9FF1F39
:104090004FF000032DE90C0001A9FFF7E1FBDDF86B
:1040A00040E012B0704700BFEC4600B52DE900506B
:1040B0002DE9FF1F4FF000032DE90C0001A9FFF7C8
:1040C0000BFCDDF840E012B0704700BFEC4600B5D5
:1040D0002DE900502DE9FF1F4FF000032DE90C00E2
:1040E00001A9FFF71BFCDDF840E012B0704700BFEC
:1040F000EC4600B52DE900502DE9FF1F4FF00003FD
:104100002DE90C0001ABFFF7DFFBDDF840E012B05A
:10411000704700BFEC4600B52DE900502DE9FF1FA8
:104120004FF000032DE90C0001AAFFF74BFCDDF86E
:1041300040E012B0704700BF027A03467AB9427A73
:10414000A2B14168013A10B44272086803220C1D02
:104150001A7202025C60000E10BC1A6070470068A0
:10416000013A1A7202021A60000E7047B0207047BE
:104170002DE9F043054685B00E464FF00008304665
:10418000FFF7DAFFB028044600F0BA80070620D512
:1041900000F0F003802B4DD0902B36D0A02B60D0B8
:1041A000B02B74D0C02B00F08B8000F0F803D02B24
:1041B0000BD100F007020132052342F40022012155
:1041C0002846FFF7A1FD0028D9D0092005B0BDE899
:1041D000F0838300DBB21F1D0DF10C09002319468B
:1041E000CDF800900D222846FFF7A2FB039BCDF8E7
:1041F000009060064CBFDF1BFF1800230D221946FC
:1042000028460397FFF7BAFBB9E700F00D030D2B23
:10421000DBD003AF002300F00F02194600972846B9
:10422000FFF786FB002300970D2219462846FFF76B
:10423000A5FBA4E73046FFF77FFF24022043B0F53B
:10424000004FC2D004010023A2B219462846FFF74E
:104250005BFD0028B9D114F4004F18BF4FF00108DE
:104260008DE7C24302F007034FF47F621A41010752
:1042700002F47F624FF0000348BF42F480421946C7
:104280002846FFF741FD00283FF479AF9DE7B128AC
:104290003BD0B22800F09380B32841D000F0FC035B
:1042A000B42B92D000F007020132012342F4002225
:1042B00019462846FFF728FD00283FF460AF84E741
:1042C000C6284AD0C72854D000F0F803C02B63D0CA
:1042D000C82868D0C9287FF478AF3046FFF72CFF94
:1042E000020300F00F0002F47022013002430121AA
:1042F00005232846FFF708FD00283FF440AF64E798
:10430000B8F1000F18D0002060E73046FFF714FF27
:10431000024600283FF459AF10F0F003C8D054E72C
:104320003046FFF709FF020300F00F03013302F4E8
:1043300070221A430123BBE703AC43460E224146D9
:1043400000942846FFF7F4FA009443460F224146B2
:104350002846FFF713FB404638E73046FFF7ECFEF0
:10436000020300F00F03013302F470221A43032307
:104370009EE73046FFF7E0FE024600283FF425AFF7
:1043800010F0F0037FF421AF04212846FFF7BCFCB6
:1043900000283FF4F4AE18E700F00F0201320323C7
:1043A00042F4202284E73046FFF7C6FE00F0F00218
:1043B00000F00F031032013343EA023297E7002383
:1043C0000DF10C090D221946CDF800902846FFF793
:1043D000AFFA3046FFF7B0FE02064FF002040CD5EC
:1043E000039B00F07F00A040184403903046FFF785
:1043F000A3FE030604F10704F2D4039BCDF800905A
:1044000000F07F02A24003F501731A4400230392D7
:1044100019460D222846FFF7B1FAB0E608B5062086
:1044200000F05EFA0120FCF797FF00BF70B50D4E5B
:104430000D4D761BB61006D0002455F8043B013410
:104440009847A642F9D1094E094D761B06F012FE97
:10445000B61006D0002455F8043B01349847A64214
:10446000F9D170BD80B0400080B0400088B04000FD
:1044700080B04000844641EA000313F003036DD18D
:10448000403A41D351F8043B40F8043B51F8043B17
:1044900040F8043B51F8043B40F8043B51F8043B1E
:1044A00040F8043B51F8043B40F8043B51F8043B0E
:1044B00040F8043B51F8043B40F8043B51F8043BFE
:1044C00040F8043B51F8043B40F8043B51F8043BEE
:1044D00040F8043B51F8043B40F8043B51F8043BDE
:1044E00040F8043B51F8043B40F8043B51F8043BCE
:1044F00040F8043B51F8043B40F8043B51F8043BBE
:1045000040F8043B403ABDD2303211D351F8043B5D
:1045100040F8043B51F8043B40F8043B51F8043B9D
:1045200040F8043B51F8043B40F8043B103AEDD20C
:104530000C3205D351F8043B40F8043B043AF9D25D
:10454000043208D0D2071CBF11F8013B00F8013B30
:1045500001D30B8803806046704700BF082A13D33D
:104560008B078DD010F003038AD0C3F10403D21A55
:10457000DB071CBF11F8013B00F8013B80D331F889
:10458000023B20F8023B7BE7043AD9D3013A11F809
:10459000013B00F8013BF9D20B7803704B78437074
:1045A0008B78837060467047830730B548D0541EBF
:1045B000002A3FD0CAB2034601E0013C3AD303F8D7
:1045C000012B9D07F9D1032C2DD9CDB245EA052544
:1045D0000F2C45EA054536D9A4F1100222F00F0C44
:1045E00003F1200EE6444FEA121C03F1100242E9E7
:1045F000045542E9025510327245F8D10CF101021E
:1046000014F00C0F03EB021204F00F0C13D0ACF1FA
:10461000040323F003030433134442F8045B93427E
:10462000FBD10CF003042CB1CAB21C4403F8012BDB
:104630009C42FBD130BD64461346002CF4D1F9E70F
:1046400003461446BFE71A46A446E0E70FB400B598
:10465000074983B004AB086853F8042B81680193C1
:1046600000F0FEF903B05DF804EB04B0704700BF42
:104670002C00402070B5054688B008460C4600F076
:104680007FF9224EAA6B059001214318CDE90661FE
:1046900004A8022104940393AC680190029122B310
:1046A000636E13F0010FB4F90C309AB201D1980582
:1046B00025D5910406D4626E43F4005322F40052CF
:1046C000A3816266284601AA214603F097F9636E2A
:1046D000002814BF4FF0FF350A25DA0702D4A3895A
:1046E0009B0506D5284608B070BD284602F088FF15
:1046F000D6E7A06D03F02EFB284608B070BDA06D74
:1047000003F026FBB4F90C309AB2D2E778AB400044
:10471000024B01461868FFF7ADBF00BF2C004020D8
:1047200000294FF480630CBF0222002200F000B881
:104730002DE9F043694CD4F8008083B004460E465E
:1047400017461D46B8F1000F03D0D8F83830002BBB
:1047500077D0022F05D0012F00F2AC80002DC0F2DF
:10476000A980636EDA0752D52146404602F014FF55
:10477000216B41B104F14003994202D0404603F05D
:1047800037F800232363B4F90CC000231CF0800F1A
:10479000A361636064D12CF44A6C2CF0030C022FEB
:1047A000A4F80CC06AD001AB6A462146404603F02B
:1047B00043FBA3891843A081002D2FD0002E2ED0BB
:1047C000D8F83830002B38D0009B2660AB42B4F9C3
:1047D0000C301CBF43F40063A381012F04BF43F0DE
:1047E0000103A3819AB213F00803C4E904652CD035
:1047F000D1075DD56D42A561656E002315F00105F9
:10480000A36027D00025284603B0BDE8F083A38924
:104810009B05A9D4A06D03F09BFAA5E7009D28464F
:1048200003F03AFB0646002847D0A38943F08003F3
:10483000A381D8F83830002BC6D1404602F0E0FE04
:10484000C2E7404602F0DCFE83E7A360656E15F028
:104850000105D7D1930524D5284603B0BDE8F083E0
:104860002169404602F0C4FFB4F90CC02CF44A6C34
:104870002CF0030C022FA4F80CC094D100250022C8
:1048800004F14303A2600122C4E904322360636E91
:104890004CF0020CD807A4F80CC0DDD41CF4007F47
:1048A000DAD1A06D03F056FA284603B0BDE8F083D4
:1048B000A560CBE74FF0FF35CEE7DDF80090A945C6
:1048C00004D0484603F0E8FA064620B9B4F90CC013
:1048D0004FF0FF35D3E74D46A7E700BF2C0040203F
:1048E00038B5154B1F281D6820D8D5F8DC220446A2
:1048F00062B152F820304BB1012B15D0591C0FD0AA
:10490000002542F820509847284638BD284600F038
:104910002BF8224601462846BDE8384000F00EB884
:1049200016232B60012038BD002038BD16232B60D4
:104930004FF0FF3038BD00BF2C00402070B50C4652
:10494000084D03460026204611461C462E60FCF703
:104950000BFD431C00D070BD2B68002BFBD02360E7
:1049600070BD00BFF8554120FCF7FFBC00000000FF
:104970000000000000000000000000000000000037
:1049800090F800F06DE9024520F007016FF0000C8F
:1049900010F0070491F820F040F049804FF0000437
:1049A0006FF00700D1E9002391F840F000F1080012
:1049B00082FA4CF2A4FA8CF283FA4CF3A2FA8CF34A
:1049C0004BBBD1E9022382FA4CF200F10800A4FAB1
:1049D0008CF283FA4CF3A2FA8CF3E3B9D1E9042305
:1049E00082FA4CF200F10800A4FA8CF283FA4CF33C
:1049F000A2FA8CF37BB9D1E9062301F1200182FAF6
:104A00004CF200F10800A4FA8CF283FA4CF3A2FAFB
:104A10008CF3002BC6D0002A04BF04301A4612BA09
:104A2000B2FA82F2FDE8024500EBD2007047D1E90C
:104A3000002304F00305C4F100004FEAC50514F09B
:104A4000040F91F840F00CFA05F562EA05021CBF6C
:104A500063EA050362464FF00004A9E70000000086
:104A60002DE9F04F2DED088BCDB01C460F46924638
:104A70000BEE100A054603F05DF903681193184622
:104A80000994FFF77DFF10901DB1AB6B002B00F078
:104A9000F1817B6EB7F90C20DB0791B202D4960549
:104AA00040F172868D0407D47B6E42F4005223F4E9
:104AB0000053BA8191B27B66080740F1CA803B6916
:104AC000002B00F0C68001F01A030A2B00F0CF8003
:104AD00055460023CDE92133CDE91333CDE9153314
:104AE0000E93129307932B7823AA9FED7D8B9FED56
:104AF0007E9B20929046BA46002B00F08381AB4605
:104B000004E01BF8013F002B00F0C880252BF8D1F2
:104B1000BBEB050640F0C6809BF80030002B00F090
:104B2000718100234FF0FF329BF801708DF86330E4
:104B300006930BF1010B059203932B2420260BF116
:104B4000010BA7F120035A2B00F2D280DFE813F00B
:104B5000BF02D000D000B802D000D000D0006A0060
:104B6000D000D0002A023C02D00035024802D0001A
:104B700041025B005B005B005B005B005B005B0075
:104B80005B005B00D000D000D000D000D000D0008F
:104B9000D0006201D000C8019D0162016201620182
:104BA000D000D000D000D000B102D000D000F7017A
:104BB000D000D000D000D201D000A002D000D000A0
:104BC0006507D000D000D000D000D000D000D000C9
:104BD000D0006201D000C801A1016201620162013E
:104BE0009602A1019601D0008C02D0006202FB0166
:104BF0007A029601D000D2017E003F07D000D0009B
:104C00004307D0007E00A7F1300300221BF8017B90
:104C100002EB820203EB4202A7F13003092BF5D924
:104C200006928EE71BEE100A03F084F84368159392
:104C30001846FFF7A5FE169007461BEE100A03F074
:104C400079F883681393002F40F0D6859BF80070A5
:104C500075E71BEE100A394601F092FC002841F07E
:104C6000E082B98901F01A030A2B7FF431AFB7F95A
:104C70000E30002BFFF62CAF7B6EDE0702D48D05C5
:104C800041F135811BEE100A2346524639464DB09C
:104C9000BDEC088BBDE8F04F01F032BCBBEB050664
:104CA00000F0B080229B33442293219B0133072BD9
:104CB000C8E90056219305DC08F10808079B334436
:104CC000079329E71BEE100A20AA514604F034FB93
:104CD000002841F0B6830DF18C08EFE7AFF30080B8
:104CE0000000000000000000FFFFFFFFFFFFEF7F5C
:104CF000002F00F0878000218DF8CC708DF86310B4
:104D00000123049308911E4605910C910F910D917A
:104D100033AD039B13F002030A9302D0049B0233CA
:104D20000493039B13F084030B9305D1069B049A11
:104D30009C1A002C00F36A83229A89B121990DF103
:104D4000630001310132C8F8000007294FF001006B
:104D500022922191C8F8040000F3B78308F10808F3
:104D60000A9B83B1219B19A901330232C8F80010B4
:104D7000072B4FF0020122922193C8F8041000F390
:104D8000978308F108080B9B802B00F04982059B54
:104D90009C1B002C00F38C82039BDC0500F1EB8153
:104DA000219BC8F8005001333244072BC8F8046037
:104DB0002292219300F31E8308F10808039B5C07ED
:104DC00005D5069B04995C1A002C00F38B83DDE962
:104DD000061304988142ACBF5B181B180793002A86
:104DE00040F0A48200232193089B23B108991BEE75
:104DF000100A02F0FDFC0DF18C085D462B78002BAB
:104E00007FF47DAE229B5746002B40F0D0870023D5
:104E100021939BE2099B073323F00703B3EC028B3A
:104E2000B0EEC87BB4EE497BF1EE10FA099340F383
:104E30001B85B5EEC08BF1EE10FA00F19E879DF850
:104E40006310039BA74D23F080030393A64B03221B
:104E5000472FC8BF1D4600230893049216460593AA
:104E60000C930F930D9300293FF453AF049B013330
:104E700004934EE7284602F0C3FB0AE6039B9BF827
:104E8000007043F02003039359E6039B43F01003A3
:104E90000393039B9C0640F15684099B073323F040
:104EA00007031A465B6852F8084B09921E46002B0E
:104EB000C0F25A84059B013300F0EA82039B23F081
:104EC000800954EA060340F0E582059B002B40F080
:104ED000E682CDF80C90002305931E464CAD20E1F0
:104EE000099B002153F8042B8DF863108DF8CC201A
:104EF000099305E7099C54F8045B00268DF863606C
:104F0000002D00F0BB85059A1346013300F07C8626
:104F10003146284603F094FA0890002801F03B81BE
:104F2000089A05963346561B26EAE6729DF86310EA
:104F30000994049208930C930F930D9393E7039BAA
:104F400043F010030393039B13F0200600F0DA8371
:104F5000099B073323F007035E6853F8084B099356
:104F6000039B23F48069002300228DF86320059AB7
:104F70001146013100F0BE8029F08001039154EA0E
:104F8000060140F0B580002A40F02F86002BA2D108
:104F900019F0010600F02E8430238DF82F310DF228
:104FA0002F15BEE0099B53F8042B0692002A80F2CD
:104FB000F383069A099352420692039B9BF8007072
:104FC00043F004030393BAE59BF800708DF8634047
:104FD000B5E5039B9BF8007043F080030393AEE5B7
:104FE0005A4612F8017B2A2F01F06482A7F13003A0
:104FF000092B934698BF002201F2ED801BF8017B3C
:1050000002EB820203EB4202A7F13003092BF5D930
:10501000059296E5039B9A0600F1FF83039BDB064E
:1050200000F1E985039B5F0600F1D486039B9E0592
:1050300040F1E185099B079953F8042B09931170FE
:105040005D46DBE6099B039A53F8044B0993302332
:1050500078278DF86430254B129342F002098DF8C1
:105060006570002602237FE79BF80070039B6C2F7E
:1050700000F0FB8443F01003039360E59BF800709D
:10508000039B682F00F0E88443F04003039356E548
:10509000039B43F0100919F0200600F04483099B9C
:1050A000073323F007035E6853F8084B0993012385
:1050B0005AE7039B9BF8007043F0080303933EE517
:1050C000039B9BF8007043F00103039337E59DF8C1
:1050D0006330002B7FF4BAAD9BF800708DF86360ED
:1050E0002DE500BF54AC400058AC400064AC40001B
:1050F000DDF80C90012B00F0CD81022B4CAD1ED1C0
:10510000129A04F00F032409D35C05F8013D44EA28
:105110000674360954EA0603F3D14CABCDF80C9073
:105120005E1B059A9DF86310B2424FF00003B8BFB2
:105130003246089304920C930F930D9393E604F078
:105140000703E40844EA4674F608303354EA0601DB
:105150002A4605F8013DF2D119F0010FDDD0302BC0
:10516000DBD03023023A05F8013C4CABCDF80C9073
:105170009E1A1546D5E7652F40F3F980B5EE408BB2
:10518000F1EE10FA40F0EB81219BBE49C8F8001007
:10519000013301320121072B22922193C8F8041018
:1051A00000F3088508F108081A9B0E998B4280F2DB
:1051B000E682109B11991A44C8E90013219B2292A0
:1051C0000133072B219300F3398408F108080E9B63
:1051D0005C1E002C7FF7F2AD102C219B40F3F8846D
:1051E0001BEE106A102505E008F10808103C102C91
:1051F00040F3EE840133A4491032072BC8E90015AF
:10520000CDE92132F0DD20AA5146304604F094F871
:10521000002840F09480DDE921320DF18C08E5E7AB
:10522000069B04995C1A002C7FF7B1AD102C219BD2
:105230002BDD0A954FF010095546A2461BEE104A89
:1052400006E0AAF1100ABAF1100F08F1080819DDFA
:1052500001338D491032072BC8E90019CDE92132FD
:10526000EFDD20AA294620460DF18C0804F064F8F1
:10527000002840F07281AAF1100ABAF1100FDDE99E
:105280002132E5DC5446AA460A9D7F49C8F804400D
:1052900001332244072BCDE92132C8F8001000F376
:1052A000BF83059B9C1B002C08F108087FF774AD99
:1052B000102C219B2BDD05954FF010095546A24679
:1052C0001BEE104A06E0AAF1100ABAF1100F08F11D
:1052D000080819DD01336C491032072BC8E90019A1
:1052E000CDE92132EFDD20AA2946204604F024F83A
:1052F000002840F03281AAF1100ABAF1100FDDE95E
:1053000021320DF18C08E5DC5446AA46059D5E4924
:10531000C8F8044001332244072BCDE92132C8F8F4
:10532000001000F3E18108F1080835E51BEE100AD2
:1053300020AA514604F000F800283FF453AD574628
:10534000089919B11BEE100A02F052FA7B6E13F0A5
:10535000010FBB8902D1980540F10A84590600F17A
:10536000698707984DB0BDEC088BBDE8F08F0E9BA8
:10537000012B40F37281219BC8F8005001330132A8
:105380000121072B22922193C8F8041000F38F8388
:1053900008F108081099119801330A44072BC8E94D
:1053A0000001CDE9213200F3908308F10808B5EE41
:1053B000408BF1EE10FA00F06F810E990133013944
:1053C00001350A44072BC8F800502193C8F804108F
:1053D000229200F3538108F108081499C8F80410C8
:1053E00001330A44072B1CA9CDE92132C8F800106B
:1053F0007FF7E2AC1BEE100A20AA514603F09CFF97
:1054000000289CD1229A0DF18C08D7E4102CDDE9FC
:105410002112DFF8789025DD179510234D461BEEFD
:10542000109A04E0103C102C08F1080818DD013136
:1054300010320729C8E90053CDE92112F2DD20AA74
:10544000514648460DF18C0803F076FF00287FF4A2
:1054500076AF103C102CDDE921124FF01003E6DC92
:10546000A946179DC8F80090013122440729CDE9CB
:105470002112C8F8044000F381839DF8631008F1FD
:1054800008085AE494AC4000A8AC400098AC400036
:10549000DDF80C900A2C76F1000380F02483303480
:1054A0008DF82F41CDF80C9001260DF22F1538E61E
:1054B0001BEE100A20AA514603F03EFF00287FF49D
:1054C0003EAF229A0DF18C085DE41BEE100A20AA73
:1054D000514603F031FF00287FF431AF229A0DF1DD
:1054E0008C083DE4102C219BDFF8789321DD1BEE26
:1054F000107A10254E4604E0103C102C08F10808E4
:1055000016DD01331032072BC8E90065CDE92132E1
:10551000F2DD20AA514638460DF18C0803F00CFF4D
:1055200000287FF40CAF103C102CDDE92132E8DCC0
:10553000B14601332244072BC8E90094CDE921325A
:105540007FF745AC1BEE100A20AA514603F0F4FE8B
:1055500000287FF4F4AE229A39E42F46F0E61A9937
:10556000002940F31E81DDE90D318B42A8BF0B46B7
:10557000002B1E460BDD1A44C8E90053219B2292E2
:105580000133072B219300F3BB8508F108080D9B1D
:10559000002EA8BF9B1B002B1C4600F34B830D9BCA
:1055A0002B441F46039B590500F1E2841A9C0E9B75
:1055B0009C4203DB039BDB0740F10484109B1199A1
:1055C0001A44C8E90013219B22920133072B21932F
:1055D00000F3D28508F108080E9B1D44ED1B1C1B2F
:1055E000A542A8BF2546002D0DDD219BC8F80070FF
:1055F00001332A44072BC8F804502292219300F368
:10560000F68508F10808002DA8BF641B002C7FF761
:10561000D5AB102C219B40F3DB821BEE106A1025CA
:1056200005E008F10808103C102C40F3D18201334A
:105630008A491032072BC8E90015CDE92132F0DD87
:1056400020AA5146304603F077FE00287FF477AE5B
:10565000DDE921320DF18C08E5E7039BDE073FF51C
:105660008AAE219BC8F80050013301320121072B7B
:1056700022922193C8F804107FF7ADAE1BEE100AFA
:1056800020AA514603F058FE00287FF458AEDDE909
:1056900021320DF18C08A0E60E994C1E002C7FF7EC
:1056A0009CAE102C40F312831BEE106A102505E00F
:1056B00008F10808103C102C40F3088301336749B7
:1056C0001032072BC8E90015CDE92132F0DD20AA00
:1056D0005146304603F030FE00287FF430AEDDE95D
:1056E00021320DF18C08E5E71BEE100A20AA514685
:1056F00003F022FE00287FF422AE229A0DF18C08DE
:10570000FFF74ABB039B13F0100340F0A080039AFD
:1057100012F0400200F00583099A52F8044B0992F6
:105720001E46A4B21CE419F0100340F0898019F061
:10573000400200F0E782099A52F8044B09921E4693
:10574000A4B2012310E4039BD80671D4039B59062D
:1057500040F1C982099B53F8044B099344F3C036C6
:10576000334624B2FFF7A3BB2D2364428DF8633088
:10577000DDF80C9066EB46060123FFF7F8BB039BB0
:10578000D8077FF51BAB14E5B86D02F0E1FAB7F965
:105790000C2091B2FFF786B99BF800700993FFF7D0
:1057A000CEB9219B2E48C8F80000013301320120F8
:1057B000072B22922193C8F8040000F3838408F198
:1057C0000808002940F06382039B0E9903F001034F
:1057D0000B433FF4F3AA109B11991A44C8E9001334
:1057E000219B22920133072B219300F3718308F14F
:1057F00008085DE24CAD94E4139B002B3FF426AA0D
:10580000139B1B78002B3FF421AA039B9BF800708D
:1058100043F480630393FFF792B9099B079853F809
:10582000041B0993C217C1E900025D46FFF7E6BAFF
:10583000099B53F8044B0993E6173346FFF737BB30
:10584000099B53F8044B09930123FFF78DBB099B78
:1058500053F8044B0993FFF783BB00BFA8AC40008B
:1058600094AC400098AC4000B4EE488BF1EE10FAD6
:1058700080F1D485612F00F02485412F00F0B382A0
:10588000059B5A1C27F0200400F07585472C00F07A
:105890005F85039B43F4807618EE903A002BC0F2AC
:1058A0005485B0EE48AB4FF00009CDF82090462C5F
:1058B00000F03484452C00F00985B0EE4A0B1EAB95
:1058C00001931BAB0093059A1BEE100A1AAB022141
:1058D00000F05EFF472C054640F0FC850398034628
:1058E000DB0700F1AC841E9B03965B1B0E93472CD9
:1058F00000F01083462C00F05A841A9B0D930D9BE8
:10590000412C03F1FF331A9300F03B85FAB20021DA
:10591000002BB8BF0D9B8DF87020BABFC3F10103F7
:105920002D222B22092B8DF8712040F330850DF1AB
:105930007F0CC44E6246144686FB0321DA17C2EB85
:10594000A10202EB8201A3EB4101303104F8011CFA
:1059500019466329134604F1FF32ECDC3033A11EF3
:10596000DBB28C4502F8013C40F2B6850DF17201C4
:1059700001E012F8013B01F8013B9445F9D10DF12A
:1059800081030DF172021B1B13441CAA9B1A149372
:105990000E9B149A012B03EB020640F36285109BC9
:1059A0001E4420F4806040F48073039326EAE6727C
:1059B00000230C9304920F930D93B9F1000F40F064
:1059C000B4829DF86310CDF81490FFF74CBADDF85F
:1059D0000C90FFF760BB9C4B1293039B13F02006C7
:1059E0005CD0099B073323F007035E6853F8084B2C
:1059F0000993039BDD070AD554EA060207D043F05A
:105A00000203039330238DF865708DF86430039B97
:105A100023F480690223FFF7A7BA8C4B1293DCE7CB
:105A20001BEE100A20AA514603F086FC00287FF4E2
:105A300086AC229A0DF18C08FFF7A9B91BEE100A6B
:105A400020AA514603F078FC00287FF478AC229A13
:105A50000DF18C08FFF7BBBB43F400739BF801709A
:105A600003930BF1010BFFF76AB843F020039BF897
:105A7000017003930BF1010BFFF761B8059E0895C8
:105A8000062E2B4628BF0626059529460496704DFE
:105A900009940C930F930D93FFF7E5B9039B13F053
:105AA00010037BD0099B53F8044B0993A1E71BEE2D
:105AB000100A20AA514603F03FFC00287FF43FACB7
:105AC000DDE921320DF18C0864E41BEE100A20AAF6
:105AD000514603F031FC00287FF431ACDDE921327E
